:1000000001308A00C62900000A108A100A118207EE
:1000100028340C34013406340C104139E131A02964
:10002000E13CE9396910253200008C20F230631080
:10003000E734F232ED327A17A01264008C20F230ED
:100040006310F330F934F334A01264008C20F230E2
:100050006310D330F934F334A01264002B308400E1
:1000600083130008031942280130F800F701F70B49
:100070003728F80B36284A30F700F70B3D28402880
:10008000800B34280800320EF039F7000F300605D7
:1000900077048600000006144D28061008000608A4
:1000A000F700060E0F39F8000800831606108610B8
:1000B0000611831286100F3083160605F03886006D
:1000C000831206150000061400004F207808B200C5
:1000D00006100000061400004F207808B10006103A
:1000E0000F308316060586008312320EF700F030BB
:1000F000F70577083104F8007808B100B11B5B28D8
:100100002F1C86102F188614000006110000061000
:10011000300EB1000F30B1053108B2004320300875
:100120000F39B100B200432008000F3083160605D6
:10013000860006108610061183128610061106101E
:100140000F30AB002E200130A4002408033C031C18
:10015000B1280330B20043200530AB002E20A40AA2
:10016000A5280230B20043200530AB002E20A401A8
:100170002408033C031CC52824080420A500AF0163
:100180002508B0005520A40AB8288A110A12DB29D4
:100190002C0BCB28CE284030AD00CF28AD0101304C
:1001A0002B02AD072D088038AE00AF012E08B0003D
:1001B000552008002A08073A0319E8280B3A0319C2
:1001C000ED28063A0319F528023A0319FB280029FD
:1001D0000130AB00AC00C8200529AF010130B000F0
:1001E00055200230AB002E2005290130AB00023033
:1001F000AC00C8200529AF011030B00055200529FA
:100200000130AF002A08B000552008000B08A500F7
:100210008B13831603178C170C14000000000318AF
:10022000382983120C087F390313A60003170D0821
:100230000313A70003170F080313A8002608AA003A
:10024000DA20270803178D000313280803178F00EF
:1002500083168C170C140000000083120313A40BE8
:10026000322935298316031738295729831603178E
:1002700083120C0D0E0D7F390313A60003170D0812
:100280000313A70003170F080313A8002608AA00EA
:10029000DA20270803178D000313280803178F009F
:1002A0008D0A03198F0A03100313A40B0929A51B38
:1002B0008B1708002B08F8012A02031862292A0864
:1002C000F7006E29F7010830AC00AA0DF70D2B08D6
:1002D00077020318F700F80DAC0B652908002030F1
:1002E000251E3030A6002408F700A41F7F29F70937
:1002F000F70A7708A4002D30A600A51725142408B6
:10030000AA006430AB005A217708A4003030780787
:10031000A7002408AA000A30AB005A213030770722
:10032000A90030307807A8002608F70030302702EF
:1003300003199E29A514A51B2515B2292608A70077
:100340002030A600303028020319AA292514A51B45
:10035000A514B229031D2514031DB2292708A800DE
:100360002030A7002519B929A518BC292518BF29AF
:10037000C2292608AA00DA202708AA00DA202808BD
:10038000AA00DA202908AA00DA200800A201A301A5
:1003900083161F149F141F159F1183131F3083058D
:1003A0008312A001A101003083168600FF30850072
:1003B0008312860195280C3003178D0000308F00C2
:1003C00003100E300313A40006212308A4001830E4
:1003D000A5006F210518172A051CEC294630AB0033
:1003E0002E20A30A2308153C031D082A15300317E5
:1003F0008D0000308F0003100F300313A40006217E
:100400002308A4001830A5006F211430A300172A78
:100410001E3003178D0000308F0003100D300313C2
:10042000A40006212308A4001830A5006F21851818
:10043000322A4630AB002E20A3032308FF3C031DC5
:10044000232AA301322A263003178D0000308F00A3
:1004500003100D300313A40006212308A400183054
:08046000A5006F21EA296300E9
:02400E00793FF8
:00000001FF
;PIC16F877
;CRC=E22A  CREATED="09-Tem-23 18:19"
